:100000000C942A000C9447000C9447000C94470071
:100010000C9447000C9447000C9447000C94470044
:100020000C9447000C9447000C9447000C94470034
:100030000C9447000C9447000C9447000C94470024
:100040000C9447000C9447000C9447000C94470014
:100050000C94470011241FBECFE5D8E0DEBFCDBF12
:1000600010E0A0E6B0E0EAEAF8E002C005900D92E8
:10007000A637B107D9F720E0A6E7B0E001C01D928E
:10008000A737B207E1F70E9444010C9453040C9483
:10009000000084EA86BF06B607FEFDCF089583B947
:1000A00084E886BF06B607FEFDCF0895CF93DF93A1
:1000B000C82FD62F0E9449008D2F0E944F008C2FF1
:1000C0000E944F0084E986BFDF91CF910895CF93BE
:1000D000C82F90917600892F8460809376006EE41B
:1000E0000E94560085E88A95F1F70000C295C07F0E
:1000F000809176006EE48C2B0E94560080917600F1
:100100008B7F809376006EE40E94560085E88A9586
:10011000F1F70000CF9108951F93CF93DF93182F2D
:10012000C82FD0E0D595C795D595C795D595C795D6
:10013000D595C795611109C0809176008E7F809317
:1001400076006EE40E94560008C0809176008160BF
:10015000809376006EE40E9456008C2F0E94670008
:10016000812F0E946700DF91CF911F910895CF9357
:10017000C82F809176008160809376006EE40E94A3
:1001800056008C2F82958F700E9467008C2F0E94E2
:100190006700CF9108958FE295E70197F1F700C0CE
:1001A000000083E00E9467008FE39FE10197F1F771
:1001B00000C0000083E00E94670087EC90E0019798
:1001C000F1F700C0000083E00E9467008FEC97E029
:1001D0000197F1F700C0000082E00E9467008FECF9
:1001E00097E00197F1F700C0000060E088E20E940C
:1001F0008C008FEC97E00197F1F700C0000060E001
:100200008CE00E948C008FEC97E00197F1F700C022
:10021000000060E086E00E948C008FEC97E0019780
:10022000F1F700C00000809176008860809376002E
:100230006EE40E945600809176008D7F8093760058
:100240006EE40E945600089560E081E00E948C00F8
:1002500087EB9BE00197F1F700C0000008951F9322
:10026000CF93DF93EC018881882351F010E00E9446
:10027000B7001F5FFE01E10FF11D80818111F7CFF3
:10028000DF91CF911F910895CF93DF93CDB7DEB764
:100290002A970FB6F894DEBF0FBECDBF8FEF80B99F
:1002A0000E94CB000E94240180E690E00E942F0172
:1002B000D12C0F2EFDE6EF2EF0E0FF2EF02D8E015B
:1002C0000F5F1F4F1F92DF92FF92EF921F930F93CA
:1002D0000E94820160E080EC0E948C00C8010E94B4
:1002E0002F012FEF89E698E1215080409040E1F7FF
:1002F00000C00000D3940F900F900F900F900F90BC
:100300000F90E0CFAEE0B0E0E8E8F1E00C942A0412
:100310000D891E8986E08C831A8309838FEF9FE7FE
:100320009E838D83AE01475E5F4F6F89788DCE01CE
:1003300001960E94A401EF81F885E00FF11F108261
:100340002E96E4E00C944604ACE0B0E0EAEAF1E07A
:100350000C941C047C016B018A01FC01178216823B
:10036000838181FFBDC1CE0101964C01F7019381CC
:10037000F60193FD859193FF81916F01882309F424
:10038000ABC1853239F493FD859193FF81916F0163
:10039000853229F4B70190E00E948C03E7CF512CFD
:1003A000312C20E02032A0F48B3269F030F480321E
:1003B00059F0833269F420612CC08D3239F08033DA
:1003C00039F4216026C02260246023C0286021C047
:1003D00027FD27C030ED380F3A3078F426FF06C0ED
:1003E000FAE05F9E300D1124532E13C08AE0389E30
:1003F000300D1124332E20620CC08E3221F426FDE4
:100400006BC1206406C08C3611F4206802C08836A7
:1004100041F4F60193FD859193FF81916F01811164
:10042000C1CF982F9F7D9554933028F40C5F1F4FB8
:10043000FFE3F9830DC0833631F0833771F08335E4
:1004400009F05BC022C0F801808189830E5F1F4FD5
:1004500044244394512C540115C03801F2E06F0E2E
:10046000711CF801A080B18026FF03C0652D70E0EB
:1004700002C06FEF7FEFC5012C870E9481032C0122
:1004800083012C852F77222E17C03801F2E06F0EE2
:10049000711CF801A080B18026FF03C0652D70E0BB
:1004A00002C06FEF7FEFC5012C870E9476032C01FD
:1004B0002C852068222E830123FC1BC0832D90E015
:1004C00048165906B0F4B70180E290E00E948C0310
:1004D0003A94F4CFF50127FC859127FE81915F01C5
:1004E000B70190E00E948C0331103A94F1E04F1A6A
:1004F00051084114510471F7E5C0843611F0893672
:1005000039F5F80127FF07C06081718182819381ED
:100510000C5F1F4F08C060817181882777FD80952F
:10052000982F0E5F1F4F2F76B22E97FF09C0909520
:100530008095709561957F4F8F4F9F4F2068B22EA9
:100540002AE030E0A4010E94BE03A82EA81844C0EF
:10055000853729F42F7EB22E2AE030E025C0F22F15
:10056000F97FBF2E8F36C1F018F4883579F0B4C00A
:10057000803719F0883721F0AFC02F2F2061B22EBD
:10058000B4FE0DC08B2D8460B82E09C024FF0AC0B4
:100590009F2F9660B92E06C028E030E005C020E10C
:1005A00030E002C020E132E0F801B7FE07C0608110
:1005B0007181828193810C5F1F4F06C060817181C0
:1005C00080E090E00E5F1F4FA4010E94BE03A82EA2
:1005D000A818FB2DFF77BF2EB6FE0BC02B2D2E7F4C
:1005E000A51450F4B4FE0AC0B2FC08C02B2D2E7E18
:1005F00005C07A2C2B2D03C07A2C01C0752C24FF4A
:100600000DC0FE01EA0DF11D8081803311F4297EB9
:1006100009C022FF06C07394739404C0822F8678A9
:1006200009F0739423FD13C020FF06C05A2C7314E5
:1006300018F4530C5718732C731468F4B70180E244
:1006400090E02C870E948C0373942C85F5CF731453
:1006500010F4371801C0312C24FF12C0B70180E319
:1006600090E02C870E948C032C8522FF17C021FF6D
:1006700003C088E590E002C088E790E0B7010CC0B5
:10068000822F867859F021FD02C080E201C08BE202
:1006900027FD8DE2B70190E00E948C03A51438F489
:1006A000B70180E390E00E948C035A94F7CFAA949C
:1006B000F401EA0DF11D8081B70190E00E948C03E6
:1006C000A110F5CF332009F451CEB70180E290E0BC
:1006D0000E948C033A94F6CFF7018681978102C07D
:1006E0008FEF9FEF2C96E2E10C943804FC0105900B
:1006F000615070400110D8F7809590958E0F9F1F24
:100700000895FC016150704001900110D8F7809568
:1007100090958E0F9F1F08950F931F93CF93DF9394
:10072000182F092FEB018B8181FD03C08FEF9FEF05
:1007300020C082FF10C04E815F812C813D81421715
:1007400053077CF4E881F9819F012F5F3F4F398384
:100750002883108306C0E885F985812F0995892BA8
:1007600029F72E813F812F5F3F4F3F832E83812FBB
:10077000902FDF91CF911F910F910895FA01AA2731
:10078000283051F1203181F1E8946F936E7F6E5FD4
:100790007F4F8F4F9F4FAF4FB1E03ED0B4E03CD082
:1007A000670F781F891F9A1FA11D680F791F8A1F65
:1007B000911DA11D6A0F711D811D911DA11D20D0CC
:1007C00009F468943F912AE0269F11243019305D86
:1007D0003193DEF6CF010895462F4770405D419377
:1007E000B3E00FD0C9F7F6CF462F4F70405D4A33C4
:1007F00018F0495D31FD4052419302D0A9F7EACF8C
:10080000B4E0A6959795879577956795BA95C9F7BA
:1008100000976105710508959B01AC010A2E0694AD
:100820005795479537952795BA95C9F7620F731F66
:10083000841F951FA01D08952F923F924F925F92A3
:100840006F927F928F929F92AF92BF92CF92DF92E0
:10085000EF92FF920F931F93CF93DF93CDB7DEB745
:10086000CA1BDB0B0FB6F894DEBF0FBECDBF0994D9
:100870002A88398848885F846E847D848C849B8430
:10088000AA84B984C884DF80EE80FD800C811B813E
:10089000AA81B981CE0FD11D0FB6F894DEBF0FBE6D
:0A08A000CDBFED010895F894FFCFDD
:1008AA0048656C6C6F20576F726C64210025303379
:0608BA0064207365630079
:00000001FF
